{
    "_format": "hh-sol-artifact-1",
    "contractName": "PingPong",
    "sourceName": "contracts/PingPong.sol",
    "abi": [
        {
            "inputs": [
                {
                    "internalType": "address payable",
                    "name": "gatewayAddress",
                    "type": "address"
                },
                {
                    "internalType": "uint64",
                    "name": "_destGasLimit",
                    "type": "uint64"
                },
                {
                    "internalType": "uint64",
                    "name": "_ackGasLimit",
                    "type": "uint64"
                }
            ],
            "stateMutability": "nonpayable",
            "type": "constructor"
        },
        {
            "inputs": [
                {
                    "internalType": "string",
                    "name": "message",
                    "type": "string"
                }
            ],
            "name": "CustomError",
            "type": "error"
        },
        {
            "anonymous": false,
            "inputs": [
                {
                    "indexed": true,
                    "internalType": "uint64",
                    "name": "requestId",
                    "type": "uint64"
                },
                {
                    "indexed": false,
                    "internalType": "string",
                    "name": "ackMessage",
                    "type": "string"
                }
            ],
            "name": "AckFromDestination",
            "type": "event"
        },
        {
            "anonymous": false,
            "inputs": [
                {
                    "indexed": true,
                    "internalType": "uint64",
                    "name": "eventIdentifier",
                    "type": "uint64"
                },
                {
                    "indexed": false,
                    "internalType": "bool",
                    "name": "isSuccess",
                    "type": "bool"
                }
            ],
            "name": "ExecutionStatus",
            "type": "event"
        },
        {
            "anonymous": false,
            "inputs": [
                {
                    "indexed": true,
                    "internalType": "uint64",
                    "name": "requestId",
                    "type": "uint64"
                }
            ],
            "name": "NewPing",
            "type": "event"
        },
        {
            "anonymous": false,
            "inputs": [
                {
                    "indexed": true,
                    "internalType": "uint64",
                    "name": "srcChainType",
                    "type": "uint64"
                },
                {
                    "indexed": true,
                    "internalType": "string",
                    "name": "srcChainId",
                    "type": "string"
                },
                {
                    "indexed": true,
                    "internalType": "uint64",
                    "name": "requestId",
                    "type": "uint64"
                },
                {
                    "indexed": false,
                    "internalType": "string",
                    "name": "message",
                    "type": "string"
                }
            ],
            "name": "PingFromSource",
            "type": "event"
        },
        {
            "inputs": [
                {
                    "internalType": "uint64",
                    "name": "",
                    "type": "uint64"
                }
            ],
            "name": "ackFromDestination",
            "outputs": [
                {
                    "internalType": "string",
                    "name": "",
                    "type": "string"
                }
            ],
            "stateMutability": "view",
            "type": "function"
        },
        {
            "inputs": [],
            "name": "ackGasLimit",
            "outputs": [
                {
                    "internalType": "uint64",
                    "name": "",
                    "type": "uint64"
                }
            ],
            "stateMutability": "view",
            "type": "function"
        },
        {
            "inputs": [],
            "name": "currentRequestId",
            "outputs": [
                {
                    "internalType": "uint64",
                    "name": "",
                    "type": "uint64"
                }
            ],
            "stateMutability": "view",
            "type": "function"
        },
        {
            "inputs": [],
            "name": "destGasLimit",
            "outputs": [
                {
                    "internalType": "uint64",
                    "name": "",
                    "type": "uint64"
                }
            ],
            "stateMutability": "view",
            "type": "function"
        },
        {
            "inputs": [],
            "name": "gatewayContract",
            "outputs": [
                {
                    "internalType": "contract IGateway",
                    "name": "",
                    "type": "address"
                }
            ],
            "stateMutability": "view",
            "type": "function"
        },
        {
            "inputs": [
                {
                    "internalType": "uint64",
                    "name": "eventIdentifier",
                    "type": "uint64"
                },
                {
                    "internalType": "bool[]",
                    "name": "execFlags",
                    "type": "bool[]"
                },
                {
                    "internalType": "bytes[]",
                    "name": "execData",
                    "type": "bytes[]"
                }
            ],
            "name": "handleCrossTalkAck",
            "outputs": [],
            "stateMutability": "nonpayable",
            "type": "function"
        },
        {
            "inputs": [
                {
                    "internalType": "bytes",
                    "name": "",
                    "type": "bytes"
                },
                {
                    "internalType": "bytes",
                    "name": "payload",
                    "type": "bytes"
                },
                {
                    "internalType": "string",
                    "name": "srcChainId",
                    "type": "string"
                },
                {
                    "internalType": "uint64",
                    "name": "srcChainType",
                    "type": "uint64"
                }
            ],
            "name": "handleRequestFromSource",
            "outputs": [
                {
                    "internalType": "bytes",
                    "name": "",
                    "type": "bytes"
                }
            ],
            "stateMutability": "nonpayable",
            "type": "function"
        },
        {
            "inputs": [],
            "name": "owner",
            "outputs": [
                {
                    "internalType": "address",
                    "name": "",
                    "type": "address"
                }
            ],
            "stateMutability": "view",
            "type": "function"
        },
        {
            "inputs": [
                {
                    "internalType": "uint64",
                    "name": "chainType",
                    "type": "uint64"
                },
                {
                    "internalType": "string",
                    "name": "chainId",
                    "type": "string"
                },
                {
                    "internalType": "uint64",
                    "name": "destGasPrice",
                    "type": "uint64"
                },
                {
                    "internalType": "uint64",
                    "name": "ackGasPrice",
                    "type": "uint64"
                },
                {
                    "internalType": "address",
                    "name": "destinationContractAddress",
                    "type": "address"
                },
                {
                    "internalType": "string",
                    "name": "str",
                    "type": "string"
                },
                {
                    "internalType": "uint64",
                    "name": "expiryDurationInSeconds",
                    "type": "uint64"
                }
            ],
            "name": "pingDestination",
            "outputs": [],
            "stateMutability": "payable",
            "type": "function"
        },
        {
            "inputs": [
                {
                    "internalType": "uint64",
                    "name": "",
                    "type": "uint64"
                },
                {
                    "internalType": "string",
                    "name": "",
                    "type": "string"
                },
                {
                    "internalType": "uint64",
                    "name": "",
                    "type": "uint64"
                }
            ],
            "name": "pingFromSource",
            "outputs": [
                {
                    "internalType": "string",
                    "name": "",
                    "type": "string"
                }
            ],
            "stateMutability": "view",
            "type": "function"
        },
        {
            "inputs": [
                {
                    "internalType": "string",
                    "name": "FeePayer",
                    "type": "string"
                }
            ],
            "name": "setDappMetadata",
            "outputs": [],
            "stateMutability": "nonpayable",
            "type": "function"
        }
    ],
    "bytecode": "0x60806040523480156200001157600080fd5b5060405162002384380380620023848339818101604052810190620000379190620001c2565b336000806101000a81548173ffffffffffffffffffffffffffffffffffffffff021916908373ffffffffffffffffffffffffffffffffffffffff16021790555082600160006101000a81548173ffffffffffffffffffffffffffffffffffffffff021916908373ffffffffffffffffffffffffffffffffffffffff16021790555081600160146101000a81548167ffffffffffffffff021916908367ffffffffffffffff16021790555080600260006101000a81548167ffffffffffffffff021916908367ffffffffffffffff1602179055505050506200021e565b600080fd5b600073ffffffffffffffffffffffffffffffffffffffff82169050919050565b6000620001458262000118565b9050919050565b620001578162000138565b81146200016357600080fd5b50565b60008151905062000177816200014c565b92915050565b600067ffffffffffffffff82169050919050565b6200019c816200017d565b8114620001a857600080fd5b50565b600081519050620001bc8162000191565b92915050565b600080600060608486031215620001de57620001dd62000113565b5b6000620001ee8682870162000166565b93505060206200020186828701620001ab565b92505060406200021486828701620001ab565b9150509250925092565b612156806200022e6000396000f3fe60806040526004361061009c5760003560e01c80638da5cb5b116100645780638da5cb5b146101885780639eb9666f146101b3578063c8e1eaca146101cf578063eb0cde1d1461020c578063edf7075014610237578063ef15cbda146102745761009c565b80631d3ea11e146100a157806323bccf6c146100cc578063504307d9146101095780635ae2bfdb14610132578063802e731c1461015d575b600080fd5b3480156100ad57600080fd5b506100b661029d565b6040516100c39190610d44565b60405180910390f35b3480156100d857600080fd5b506100f360048036038101906100ee9190610ee5565b6102b7565b6040516101009190610fd3565b60405180910390f35b34801561011557600080fd5b50610130600480360381019061012b9190611277565b610387565b005b34801561013e57600080fd5b506101476104b1565b6040516101549190610d44565b60405180910390f35b34801561016957600080fd5b506101726104cb565b60405161017f9190610d44565b60405180910390f35b34801561019457600080fd5b5061019d6104e5565b6040516101aa9190611343565b60405180910390f35b6101cd60048036038101906101c8919061138a565b610509565b005b3480156101db57600080fd5b506101f660048036038101906101f19190611464565b610708565b6040516102039190611574565b60405180910390f35b34801561021857600080fd5b50610221610912565b60405161022e91906115f5565b60405180910390f35b34801561024357600080fd5b5061025e60048036038101906102599190611610565b610938565b60405161026b9190610fd3565b60405180910390f35b34801561028057600080fd5b5061029b6004803603810190610296919061163d565b6109d8565b005b600160149054906101000a900467ffffffffffffffff1681565b60036020528260005260406000208280516020810182018051848252602083016020850120818352809550505050505060205280600052604060002060009250925050508054610306906116b5565b80601f0160208091040260200160405190810160405280929190818152602001828054610332906116b5565b801561037f5780601f106103545761010080835404028352916020019161037f565b820191906000526020600020905b81548152906001019060200180831161036257829003601f168201915b505050505081565b60008160008151811061039d5761039c6116e6565b5b60200260200101518060200190518101906103b89190611785565b9050600080828060200190518101906103d19190611853565b9150915080600460008467ffffffffffffffff1667ffffffffffffffff16815260200190815260200160002090816104099190611a5b565b508567ffffffffffffffff167fc33aa94cccc2b8c86ec329890ba06685dbf5f024f83df6fd29702c1c710517548660008151811061044a576104496116e6565b5b602002602001015160405161045f9190611b3c565b60405180910390a28167ffffffffffffffff167fe5854bf2c0dec8c7e7e2fa28282b04c5fa0481a50fdc96661e52f6186c5a977c826040516104a19190610fd3565b60405180910390a2505050505050565b600060149054906101000a900467ffffffffffffffff1681565b600260009054906101000a900467ffffffffffffffff1681565b60008054906101000a900473ffffffffffffffffffffffffffffffffffffffff1681565b6000601481819054906101000a900467ffffffffffffffff168092919061052f90611b86565b91906101000a81548167ffffffffffffffff021916908367ffffffffffffffff1602179055505060008060149054906101000a900467ffffffffffffffff1683604051602001610580929190611bb6565b604051602081830303815290604052905060006040518060a00160405280600160149054906101000a900467ffffffffffffffff1667ffffffffffffffff1681526020018867ffffffffffffffff1681526020018a67ffffffffffffffff16815260200189815260200160405180602001604052806000815250815250905060006040518060400160405280600260009054906101000a900467ffffffffffffffff1667ffffffffffffffff1681526020018867ffffffffffffffff16815250905060006040518060400160405280864261065b9190611be6565b67ffffffffffffffff1681526020016000151581525090506106ad600160009054906101000a900473ffffffffffffffffffffffffffffffffffffffff1682600185876106a78d610b08565b8a610b53565b50600060149054906101000a900467ffffffffffffffff1667ffffffffffffffff167fc194e9c6cf7be6b60ba9729875f04d3e52bea5562f4065bbf6087e93e482584060405160405180910390a25050505050505050505050565b6060600160009054906101000a900473ffffffffffffffffffffffffffffffffffffffff1673ffffffffffffffffffffffffffffffffffffffff163373ffffffffffffffffffffffffffffffffffffffff161461076457600080fd5b6000808580602001905181019061077b9190611853565b9150915060405160200161078e90611c53565b60405160208183030381529060405280519060200120816040516020016107b59190611c99565b604051602081830303815290604052805190602001200361080b576040517f8d6ea8be00000000000000000000000000000000000000000000000000000000815260040161080290611cfc565b60405180910390fd5b80600360008667ffffffffffffffff1667ffffffffffffffff168152602001908152602001600020866040516108419190611c99565b908152602001604051809103902060008467ffffffffffffffff1667ffffffffffffffff16815260200190815260200160002090816108809190611a5b565b508167ffffffffffffffff168560405161089a9190611c99565b60405180910390208567ffffffffffffffff167f50d7a5f0f325a294f9a98c17acd0884e10a47a238075aed19ead2c492bd554db846040516108dc9190610fd3565b60405180910390a481816040516020016108f7929190611bb6565b60405160208183030381529060405292505050949350505050565b600160009054906101000a900473ffffffffffffffffffffffffffffffffffffffff1681565b60046020528060005260406000206000915090508054610957906116b5565b80601f0160208091040260200160405190810160405280929190818152602001828054610983906116b5565b80156109d05780601f106109a5576101008083540402835291602001916109d0565b820191906000526020600020905b8154815290600101906020018083116109b357829003601f168201915b505050505081565b60008054906101000a900473ffffffffffffffffffffffffffffffffffffffff1673ffffffffffffffffffffffffffffffffffffffff163373ffffffffffffffffffffffffffffffffffffffff1614610a66576040517f08c379a0000000000000000000000000000000000000000000000000000000008152600401610a5d90611d68565b60405180910390fd5b600160009054906101000a900473ffffffffffffffffffffffffffffffffffffffff1673ffffffffffffffffffffffffffffffffffffffff1663ef15cbda826040518263ffffffff1660e01b8152600401610ac19190610fd3565b6020604051808303816000875af1158015610ae0573d6000803e3d6000fd5b505050506040513d601f19601f82011682018060405250810190610b049190611d88565b5050565b606060405173ffffffffffffffffffffffffffffffffffffffff8316925082741400000000000000000000000000000000000000001860148201526034810160405280915050919050565b600080876000015167ffffffffffffffff1603610b935767ffffffffffffffff876000019067ffffffffffffffff16908167ffffffffffffffff16815250505b6000600167ffffffffffffffff811115610bb057610baf610dba565b5b604051908082528060200260200182016040528015610be357816020015b6060815260200190600190039081610bce5790505b5090508381600081518110610bfb57610bfa6116e6565b5b60200260200101819052506000600167ffffffffffffffff811115610c2357610c22610dba565b5b604051908082528060200260200182016040528015610c5657816020015b6060815260200190600190039081610c415790505b5090508381600081518110610c6e57610c6d6116e6565b5b60200260200101819052508973ffffffffffffffffffffffffffffffffffffffff1663b3e64a79348b8b8b8b60405180604001604052808981526020018a8152506040518763ffffffff1660e01b8152600401610ccf9594939291906120bf565b60206040518083038185885af1158015610ced573d6000803e3d6000fd5b50505050506040513d601f19601f82011682018060405250810190610d129190611d88565b92505050979650505050505050565b600067ffffffffffffffff82169050919050565b610d3e81610d21565b82525050565b6000602082019050610d596000830184610d35565b92915050565b6000604051905090565b600080fd5b600080fd5b610d7c81610d21565b8114610d8757600080fd5b50565b600081359050610d9981610d73565b92915050565b600080fd5b600080fd5b6000601f19601f8301169050919050565b7f4e487b7100000000000000000000000000000000000000000000000000000000600052604160045260246000fd5b610df282610da9565b810181811067ffffffffffffffff82111715610e1157610e10610dba565b5b80604052505050565b6000610e24610d5f565b9050610e308282610de9565b919050565b600067ffffffffffffffff821115610e5057610e4f610dba565b5b610e5982610da9565b9050602081019050919050565b82818337600083830152505050565b6000610e88610e8384610e35565b610e1a565b905082815260208101848484011115610ea457610ea3610da4565b5b610eaf848285610e66565b509392505050565b600082601f830112610ecc57610ecb610d9f565b5b8135610edc848260208601610e75565b91505092915050565b600080600060608486031215610efe57610efd610d69565b5b6000610f0c86828701610d8a565b935050602084013567ffffffffffffffff811115610f2d57610f2c610d6e565b5b610f3986828701610eb7565b9250506040610f4a86828701610d8a565b9150509250925092565b600081519050919050565b600082825260208201905092915050565b60005b83811015610f8e578082015181840152602081019050610f73565b60008484015250505050565b6000610fa582610f54565b610faf8185610f5f565b9350610fbf818560208601610f70565b610fc881610da9565b840191505092915050565b60006020820190508181036000830152610fed8184610f9a565b905092915050565b600067ffffffffffffffff8211156110105761100f610dba565b5b602082029050602081019050919050565b600080fd5b60008115159050919050565b61103b81611026565b811461104657600080fd5b50565b60008135905061105881611032565b92915050565b600061107161106c84610ff5565b610e1a565b9050808382526020820190506020840283018581111561109457611093611021565b5b835b818110156110bd57806110a98882611049565b845260208401935050602081019050611096565b5050509392505050565b600082601f8301126110dc576110db610d9f565b5b81356110ec84826020860161105e565b91505092915050565b600067ffffffffffffffff8211156111105761110f610dba565b5b602082029050602081019050919050565b600067ffffffffffffffff82111561113c5761113b610dba565b5b61114582610da9565b9050602081019050919050565b600061116561116084611121565b610e1a565b90508281526020810184848401111561118157611180610da4565b5b61118c848285610e66565b509392505050565b600082601f8301126111a9576111a8610d9f565b5b81356111b9848260208601611152565b91505092915050565b60006111d56111d0846110f5565b610e1a565b905080838252602082019050602084028301858111156111f8576111f7611021565b5b835b8181101561123f57803567ffffffffffffffff81111561121d5761121c610d9f565b5b80860161122a8982611194565b855260208501945050506020810190506111fa565b5050509392505050565b600082601f83011261125e5761125d610d9f565b5b813561126e8482602086016111c2565b91505092915050565b6000806000606084860312156112905761128f610d69565b5b600061129e86828701610d8a565b935050602084013567ffffffffffffffff8111156112bf576112be610d6e565b5b6112cb868287016110c7565b925050604084013567ffffffffffffffff8111156112ec576112eb610d6e565b5b6112f886828701611249565b9150509250925092565b600073ffffffffffffffffffffffffffffffffffffffff82169050919050565b600061132d82611302565b9050919050565b61133d81611322565b82525050565b60006020820190506113586000830184611334565b92915050565b61136781611322565b811461137257600080fd5b50565b6000813590506113848161135e565b92915050565b600080600080600080600060e0888a0312156113a9576113a8610d69565b5b60006113b78a828b01610d8a565b975050602088013567ffffffffffffffff8111156113d8576113d7610d6e565b5b6113e48a828b01610eb7565b96505060406113f58a828b01610d8a565b95505060606114068a828b01610d8a565b94505060806114178a828b01611375565b93505060a088013567ffffffffffffffff81111561143857611437610d6e565b5b6114448a828b01610eb7565b92505060c06114558a828b01610d8a565b91505092959891949750929550565b6000806000806080858703121561147e5761147d610d69565b5b600085013567ffffffffffffffff81111561149c5761149b610d6e565b5b6114a887828801611194565b945050602085013567ffffffffffffffff8111156114c9576114c8610d6e565b5b6114d587828801611194565b935050604085013567ffffffffffffffff8111156114f6576114f5610d6e565b5b61150287828801610eb7565b925050606061151387828801610d8a565b91505092959194509250565b600081519050919050565b600082825260208201905092915050565b60006115468261151f565b611550818561152a565b9350611560818560208601610f70565b61156981610da9565b840191505092915050565b6000602082019050818103600083015261158e818461153b565b905092915050565b6000819050919050565b60006115bb6115b66115b184611302565b611596565b611302565b9050919050565b60006115cd826115a0565b9050919050565b60006115df826115c2565b9050919050565b6115ef816115d4565b82525050565b600060208201905061160a60008301846115e6565b92915050565b60006020828403121561162657611625610d69565b5b600061163484828501610d8a565b91505092915050565b60006020828403121561165357611652610d69565b5b600082013567ffffffffffffffff81111561167157611670610d6e565b5b61167d84828501610eb7565b91505092915050565b7f4e487b7100000000000000000000000000000000000000000000000000000000600052602260045260246000fd5b600060028204905060018216806116cd57607f821691505b6020821081036116e0576116df611686565b5b50919050565b7f4e487b7100000000000000000000000000000000000000000000000000000000600052603260045260246000fd5b600061172861172384611121565b610e1a565b90508281526020810184848401111561174457611743610da4565b5b61174f848285610f70565b509392505050565b600082601f83011261176c5761176b610d9f565b5b815161177c848260208601611715565b91505092915050565b60006020828403121561179b5761179a610d69565b5b600082015167ffffffffffffffff8111156117b9576117b8610d6e565b5b6117c584828501611757565b91505092915050565b6000815190506117dd81610d73565b92915050565b60006117f66117f184610e35565b610e1a565b90508281526020810184848401111561181257611811610da4565b5b61181d848285610f70565b509392505050565b600082601f83011261183a57611839610d9f565b5b815161184a8482602086016117e3565b91505092915050565b6000806040838503121561186a57611869610d69565b5b6000611878858286016117ce565b925050602083015167ffffffffffffffff81111561189957611898610d6e565b5b6118a585828601611825565b9150509250929050565b60008190508160005260206000209050919050565b60006020601f8301049050919050565b600082821b905092915050565b6000600883026119117fffffffffffffffffffffffffffffffffffffffffffffffffffffffffffffffff826118d4565b61191b86836118d4565b95508019841693508086168417925050509392505050565b6000819050919050565b600061195861195361194e84611933565b611596565b611933565b9050919050565b6000819050919050565b6119728361193d565b61198661197e8261195f565b8484546118e1565b825550505050565b600090565b61199b61198e565b6119a6818484611969565b505050565b5b818110156119ca576119bf600082611993565b6001810190506119ac565b5050565b601f821115611a0f576119e0816118af565b6119e9846118c4565b810160208510156119f8578190505b611a0c611a04856118c4565b8301826119ab565b50505b505050565b600082821c905092915050565b6000611a3260001984600802611a14565b1980831691505092915050565b6000611a4b8383611a21565b9150826002028217905092915050565b611a6482610f54565b67ffffffffffffffff811115611a7d57611a7c610dba565b5b611a8782546116b5565b611a928282856119ce565b600060209050601f831160018114611ac55760008415611ab3578287015190505b611abd8582611a3f565b865550611b25565b601f198416611ad3866118af565b60005b82811015611afb57848901518255600182019150602085019450602081019050611ad6565b86831015611b185784890151611b14601f891682611a21565b8355505b6001600288020188555050505b505050505050565b611b3681611026565b82525050565b6000602082019050611b516000830184611b2d565b92915050565b7f4e487b7100000000000000000000000000000000000000000000000000000000600052601160045260246000fd5b6000611b9182610d21565b915067ffffffffffffffff8203611bab57611baa611b57565b5b600182019050919050565b6000604082019050611bcb6000830185610d35565b8181036020830152611bdd8184610f9a565b90509392505050565b6000611bf182610d21565b9150611bfc83610d21565b9250828201905067ffffffffffffffff811115611c1c57611c1b611b57565b5b92915050565b600081905092915050565b50565b6000611c3d600083611c22565b9150611c4882611c2d565b600082019050919050565b6000611c5e82611c30565b9150819050919050565b6000611c7382610f54565b611c7d8185611c22565b9350611c8d818560208601610f70565b80840191505092915050565b6000611ca58284611c68565b915081905092915050565b7f537472696e672073686f756c64206e6f7420626520656d707479000000000000600082015250565b6000611ce6601a83610f5f565b9150611cf182611cb0565b602082019050919050565b60006020820190508181036000830152611d1581611cd9565b9050919050565b7f4f6e6c79206f776e65722063616e207365742064617070206d65746164617461600082015250565b6000611d52602083610f5f565b9150611d5d82611d1c565b602082019050919050565b60006020820190508181036000830152611d8181611d45565b9050919050565b600060208284031215611d9e57611d9d610d69565b5b6000611dac848285016117ce565b91505092915050565b611dbe81610d21565b82525050565b611dcd81611026565b82525050565b604082016000820151611de96000850182611db5565b506020820151611dfc6020850182611dc4565b50505050565b7f4e487b7100000000000000000000000000000000000000000000000000000000600052602160045260246000fd5b60048110611e4257611e41611e02565b5b50565b6000819050611e5382611e31565b919050565b6000611e6382611e45565b9050919050565b611e7381611e58565b82525050565b604082016000820151611e8f6000850182611db5565b506020820151611ea26020850182611db5565b50505050565b600082825260208201905092915050565b6000611ec482610f54565b611ece8185611ea8565b9350611ede818560208601610f70565b611ee781610da9565b840191505092915050565b600082825260208201905092915050565b6000611f0e8261151f565b611f188185611ef2565b9350611f28818560208601610f70565b611f3181610da9565b840191505092915050565b600060a083016000830151611f546000860182611db5565b506020830151611f676020860182611db5565b506040830151611f7a6040860182611db5565b5060608301518482036060860152611f928282611eb9565b91505060808301518482036080860152611fac8282611f03565b9150508091505092915050565b600081519050919050565b600082825260208201905092915050565b6000819050602082019050919050565b6000611ff18383611f03565b905092915050565b6000602082019050919050565b600061201182611fb9565b61201b8185611fc4565b93508360208202850161202d85611fd5565b8060005b85811015612069578484038952815161204a8582611fe5565b945061205583611ff9565b925060208a01995050600181019050612031565b50829750879550505050505092915050565b600060408301600083015184820360008601526120988282612006565b915050602083015184820360208601526120b28282612006565b9150508091505092915050565b600060e0820190506120d46000830188611dd3565b6120e16040830187611e6a565b6120ee6060830186611e79565b81810360a08301526121008185611f3c565b905081810360c0830152612114818461207b565b9050969550505050505056fea26469706673582212208446cc8a5a66c4e96ddca3f459f16e9e51289b5387aca7fc2dba3d4e15474ce064736f6c63430008120033",
    "linkReferences": {},
    "deployedLinkReferences": {}
}